:020000040800F2
:1000000000600020ED160008A5160008A9160008DB
:1000100000000000000000000000000000000000E0
:10002000000000000000000000000000AD16000805
:100030000000000000000000B1160008B51600081E
:100040003D1700083D1700083D1700083D17000840
:100050003D1700083D1700083D1700083D17000830
:100060003D1700083D1700083D1700083D17000820
:100070003D170008BD1600083D1700083D17000891
:100080003D1700080000000000000000DD16000819
:1000900000000000CD1600083D1700083D170008BD
:1000A0003D1700083D1700083D1700083D170008E0
:1000B0003D170008000000000000000000000000E4
:1000C000002934D00123002210B488422CD301240B
:1000D0002407A14204D2814202D209011B01F8E7A0
:1000E000E400A14204D2814202D249005B00F8E759
:1000F000884201D3401A1A434C08A04202D3001B85
:100100005C0822438C08A04202D3001B9C082243B7
:10011000CC08A04202D3001BDC082243002803D0F5
:100120001B0901D00909E3E7100010BC704701B5B5
:10013000002000F00BF802BD0029F8D003B5FFF74E
:10014000C1FF0EBC4243891A1847C0467047C046DB
:10015000844608006146FFE71FB504F02EF800282A
:1001600001D40021C8421FBD10B503F0C3FF4042B7
:10017000013010BD10B504F020F8002801DB00208C
:1001800010BD012010BDC04610B504F016F80028BF
:1001900001DD002010BD012010BDC04610B503F0E8
:1001A000CEFF002801DC002010BD012010BDC0469C
:1001B00010B503F0C4FF002801DA002010BD0120B3
:1001C00010BDC04602B4714649084900095C4900A7
:1001D0008E4402BC7047C0461C2101231B04984278
:1001E00001D3000C10391B0A984201D3000A0839C8
:1001F0001B09984201D30009043902A2105C40187F
:100200007047C04604030202010101010000000022
:100210000000000010B5064C2378002B07D1054BD9
:10022000002B02D0044800E000BF0123237010BD62
:100230006C050020000000005C530008044B10B562
:10024000002B03D00349044800E000BF10BDC046A6
:1002500000000000700500205C5300088021A020F1
:1002600010B500220901C00501F077FD8021A02012
:1002700000224901C00501F070FD0A2001F0DCFAFE
:100280000A22054B1A60054B1A60054B093A1A7091
:10029000044B1A7010BDC046900500208C0500204C
:1002A000890500208805002000228021A02070B54B
:1002B0000F4CC005236849015A62013201F04DFD1F
:1002C000200002F009FB80210A4801F029FD0028E6
:1002D000F9D0236820005D6A02F04AFB8021A0204B
:1002E00000224901C00501F038FD280070BDC0465C
:1002F0002C0600200004005000228021A02070B5B0
:10030000104CC005236849015A62013201F025FDF5
:10031000200002F0E1FA8021A0200901C00501F0CF
:10032000FFFC0028F7D0236820005D6A02F020FB64
:100330008021A02000224901C00501F00EFD280007
:1003400070BDC0462C06002070B505000C00FFF7FC
:10035000D3FF074B1B6883429B415B422B70FFF727
:10036000A3FF044B1B6883429B415B42237070BD1B
:10037000900500208C05002000B58FB01C220021C4
:1003800007A804F08DFD14220021684604F088FDC2
:100390000721134A06A813688B43136002230693B0
:1003A000FE33099300230A9340330B9301F0F2FCD0
:1003B000002801D072B6FEE70722002300920193C5
:1003C000002200230490002168460292039301F06A
:1003D00007FF002801D072B6FEE70FB000BDC0468F
:1003E000002002401048114BE02210B50360822328
:1003F000D200C26080225B004360002392008261D1
:10040000FA3A836003614361C361036243628362BA
:10041000FF3A03630833C262436302F04DF90028D8
:1004200001D072B6FEE710BD5C070020003001402D
:1004300010B588B01022002104A804F031FD0C2270
:10044000002101A804F02CFD8023164C0122DB05BD
:10045000236078235242E26080226360002392008E
:100460002000A3602261A36102F0DEF9002801D020
:1004700072B6FEE7802320005B0104A9049302F01A
:1004800013FF002801D072B6FEE70190039001A986
:10049000200003F0D7FB002801D072B6FEE708B0B9
:1004A00010BDC0462C0600200848094B10B503605B
:1004B0000023084A43608360C2600361836102F0E5
:1004C000B3F9002801D072B6FEE710BD1007002076
:1004D000004401404C0400000A480B4B10B5036077
:1004E00010230A4A4360C260802200239200836086
:1004F0000261836102F098F9002801D072B6FEE72C
:1005000010BDC046C4060020002000404EC30000BD
:1005100010B58CB00C22002101A804F0C1FC1C22F3
:10052000002104A804F0BCFC174C184B184A2360A7
:100530000123636000232000A360E2602361A361C4
:1005400002F090FA002801D072B6FEE70190039005
:1005500001A9200003F076FB002801D072B6FEE767
:1005600060220C4B06900492059308900022200014
:1005700004A902F099FD002801D072B6FEE7200020
:1005800001F046F80CB010BDE0050020000400406A
:1005900010D50000886A000010B596B01C2200211A
:1005A000684604F07DFC3422002108A804F078FCA1
:1005B000224C234B234A2360012363600023200045
:1005C000A360E26023616361A36102F02DF900285A
:1005D00001D072B6FEE7200002F044FA002801D0F4
:1005E00072B6FEE760230093174B002201930023AD
:1005F000029003900690694620000492059302F051
:1006000053FD002801D072B6FEE780230022089037
:1006100009900A900B909B010E90149008A920005D
:100620000C920D9303F076FB002801D072B6FEE722
:10063000200000F0EDFF16B010BDC046940500206C
:100640000048014010D50000886A000070B58AB0EB
:100650001422002104A804F023FC0222264B0125C9
:10066000596B802611435963596BF6010A40019278
:10067000019A0422596B214811435963596B002494
:100680000A400292029A5A6B31002A435A635B6B0A
:1006900000222B400393039B01F05FFBA02000226C
:1006A0001749C00501F059FB8022002304A9154811
:1006B00004920593069401F0C1F98022A020002342
:1006C000120104A9C00504920593069401F0B6F93D
:1006D00004A90A48049605950694079401F0AEF91A
:1006E000A020094B04A9C00504930595069407941E
:1006F00001F0A4F90AB070BD0010024000080050DB
:1007000039190000000400503911000072B6FEE7EC
:10071000A02010B500221021C00501F01EFBA02072
:1007200000222021C00501F018FB10BDF0B557468E
:100730004E464546DE46E0B5E34BE44AE44F1078CA
:100740001978547881428941E248E34E8446014059
:1007500080204002804618784144A04280413840C1
:1007600081468020C005947880461878C144A04214
:1007700080413040804680204004D47882461878FA
:10078000D044A0428041D54CD54D20408024240344
:10079000A246504408434146084310210843A02183
:1007A0004C46C905AC61886180204003886114799A
:1007B0001878CA4DA04280416446204080246402DB
:1007C000A04654794044A0461C78A246C245A441A4
:1007D0003C40A2468024E405A0469479C244A14648
:1007E0001C78A046C845A4413440A0468024640437
:1007F000A146D479C844A3461C78A146D945A44152
:100800002C40A14680242403A3465446B44DD94429
:10081000AC614C4620434446204310242043886169
:10082000802040038861147A1878A0428041644691
:100830000440A14680246402A046547A1878C1443A
:10084000A042804180243840E405A0468246947A44
:100850001878C244A0428041802430406404A346FA
:100860008046D47A1878D844A04280419B4C2040DE
:1008700080242403A3465446AC614C46584420438C
:10088000444620431024204388618020400388612F
:10089000147B1878A042804164460440A14680241D
:1008A0006402A046547B1878C144A0428041802451
:1008B0003840E405A0468246947B1878C244A042A2
:1008C0008041802430406404A3468046D47B18785D
:1008D000D844A0428041814C204080242403A34678
:1008E0005446AC614C4658442043444620431024AF
:1008F00020438861802040038861107C64468046E4
:100900001878404580410440802040028046A1463E
:10091000507CC14480461878704C40458041384036
:1009200082468020C0058046907CC244804618786C
:100930004045804130408046802040048346D07C42
:10094000D8448346187858458041204080242403A9
:10095000A3465446AC614C46584420434446204389
:10096000102420438861802040038861107D644604
:1009700080461878404580410440802040028046EF
:10098000A146507DC14480461878544C4045804172
:10099000384082468020C0058046907DC244804613
:1009A000187840458041304080468020400483468E
:1009B000D07DD84483461878584580412040802413
:1009C0002403A3465446AC614C4658442043444655
:1009D0002043102420438861802040038861107EDA
:1009E000644680461878404580410440802040029B
:1009F0008046A146507EC14480461878374C404519
:100A00008041384082468020C0058046907EC244A6
:100A10008046187840458041304080468020400420
:100A20008346D07ED844834618785845804120407C
:100A300080242403A3465446AC614C4658442043CA
:100A4000444620431024204388618020400388616D
:100A50000500107F64468046187840458041044078
:100A6000802040028046A446507FC44480461878C7
:100A700010244045804107408020C0058046907F7B
:100A8000474480461878D27F404580411B783040EB
:100A900093429B418026114A76041340104AB04687
:100AA000976162465B4440441343034323438B6195
:100AB00020238D618B6180239B038B61F0BCBB463F
:100AC000B246A946A046F0BDC0070020C4070020DA
:100AD000004000C00100FFFF000100FF0800F8FF18
:100AE00000080050032370B51C00C5172C40AD0F43
:100AF000241840191840A410401BFC33E6B21840DB
:100B000002281FD008DC002824D02340002E2CD03F
:100B1000C8180138057806E0032812D12340082EB2
:100B200023D0C818457816489608445DA419E4B245
:100B30004455CC5C5100035D8A1892109B18DBB2BF
:100B4000035570BD2340C95C0D48435C9B18DBB264
:100B50004354F6E752082340002E08D10848C95CE8
:100B6000435C9B18DBB24354EBE70548E1E7C81848
:100B7000013805780248445DA418E4B24455EEE714
:100B8000C4070020F0B5DE4657464E464546E0B560
:100B9000324885B00368002B54D000239B46304B6D
:100BA00000279A462F4B99462F4B494601932F4BCE
:100BB0008146029307E001239C464B461B68E344B1
:100BC0000C375B453ED953461B680A68DB191E6823
:100BD0005D68B61A002D3CD15A46254B1B689B5CBC
:100BE000002BE8D13500612398465B4634008B46E4
:100BF000039306E020000299FFF774FF0134AC4232
:100C000015DC232CFAD85346321B511E8A4141462B
:100C10001B685242DB191B7A8A436432002BE9D0ED
:100C2000200001990134FFF75DFFAC42E9DD039B31
:100C300059469B4601239C464B461B68E3440C37B0
:100C40005B45C0D805B0F0BCBB46B246A946A0463D
:100C5000F0BDAD1AAE42C6DDADE7C046FC070020D0
:100C600000080020F80700207D5300088953000881
:100C7000F4070020F0B58027002589B07F022E0000
:100C80000135280003F070FD011C041C204803F00E
:100C90004FF92049FFF76EFA002804D1BD42EED18A
:100CA0002E0002300EE01B49201C03F0C5FA011C87
:100CB000194803F03DF9FE21890503F0B5FB03F067
:100CC0001FF980B20023154CE06020006660A3602D
:100CD0002361A36101F0C6FE002815D11422002172
:100CE00002A804F0DDF8AF236022DB00009201933C
:100CF00069460022200002F0D7F9002801D109B08E
:100D0000F0BDFFF703FDFAE7FFF700FDE6E7C04699
:100D100002DB344400004843001B374CE005002050
:100D2000F0B54F46D6464646C0B58946924688B08D
:100D3000071C002965D16C4B1B68052B00D976E098
:100D40006A49FFF717FA002800D070E080235B02A1
:100D50000025984602E0454500D1C1E02E0001354E
:100D6000280003F001FD011C041C614803F0E0F8B9
:100D7000391CFFF7FFF90028EDD0211C381C03F0C7
:100D80005BFA011C5B4803F0D3F8FE21890503F0F0
:100D90004BFB03F0B5F84B4680B2002B53D0002339
:100DA000554CE06020006660A3602361A36101F000
:100DB00059FE002800D08BE01422002103A804F083
:100DC0006FF8602301934B46012B4ED14B49381CE1
:100DD000FFF7D0F9431E9841494A43421340C822C5
:100DE0009200944601A96344002220004B6002F067
:100DF0005BF9002801D0FFF789FC5246414B1A608D
:100E00004DE03A49FFF7B6F900289FD03A4C00214F
:100E1000200001F0BBFF200001F07CFE5246394B60
:100E20001A6008B0E0BCBA46B146A846F0BD364CE0
:100E30000021200001F0AAFF200001F06BFE5246C5
:100E4000324B1A60EDE7304CE06020006660A36032
:100E50002361A36101F006FE002836D1142200218F
:100E600003A804F01DF8602301932149381CFFF703
:100E700095F9AF22431E9841D20094464342134055
:100E8000634401A9002220004B6002F00DF9002804
:100E900018D14B46002BB0D152461C4B1A60134957
:100EA000381CFFF77BF90028BBD0184B1B68002BC0
:100EB00011D1144B1B68002BB3D000210E4801F058
:100EC00087FEAEE7FFF722FCE3E7FFF71FFCC5E76D
:100ED000FFF71CFC70E700210B4801F079FEE8E702
:100EE0002E000B4C49E7C046E807002000002041D7
:100EF00002DB3444001B374C9405002000004843BB
:100F000070FEFFFFEC070020E0050020F007002046
:100F100080008047F0B5DE4657464E464546E0B570
:100F200099B000F00CFCFFF727FAFFF78FFBFFF7F3
:100F300059FAFFF7EDFAFFF77BFAFFF7CDFAFFF763
:100F4000B3FAFFF729FB642000F076FCFFF786F97F
:100F5000FFF7DEFB002316AAD4489371D37101F08A
:100F60002DFDD34801F02AFDD24BD34E1493D34B21
:100F7000D34C0C93D34BD44F1093D44B15969B4624
:100F8000D34B9A46D34B0393D34B0493D34B089341
:100F9000D34B1293D34B1393D34B1193D34B98460C
:100FA000D34B9946D34B0D935B46D3460B93002509
:100FB00020220121200003F073FFF620149B109AD9
:100FC0001D700C9BFF301A600B9B0121186003F011
:100FD00011FC5B4618609623039ADA461360049A64
:100FE00012261360089BC3461D70002305930193CE
:100FF000129B0A93139B09930023069316AB9B79CC
:1010000016A916A8CD79063007310293FFF79CF98F
:1010100016A98B7900218846002B03D00123029A60
:101020005A40904616ABDB79002B00D111E1012329
:101030005D4043462B430795029320220021200068
:1010400003F02EFF5B461D680A2D00D9F6E04B46E3
:101050001B68A9495800C0184000FFF731F8642305
:101060000200237164210130633B002A08D00D9AED
:1010700094466246D25C0133DBB2A1548342F8D37A
:10108000029B002B00D191E0019B002B00D14FE18E
:10109000069B002B00D031E1059B002B00D0EAE03D
:1010A000019B013B0193002D00D18DE05B46013D8A
:1010B0001D60FFF767FD039B1B68002B6BD1099D2B
:1010C00000216A6828680835FFF72AFE0995049B05
:1010D0001B68002B4DD10A9D01216A682868FFF723
:1010E0001FFE089B08351A780A950132D2B21A7091
:1010F000062E4AD8E670E677331C062E00D2062369
:10110000063BDBB2E372E371331C0C2E00D20C23DE
:101110000C3BDBB2E374E373182A02D10022089B74
:101120001A7001233B703B78002BFCD14B464A469A
:101130001B6801331360002E00D05FE7FFF79AFDB4
:10114000119D0021280001F021FE280001F0E2FCA1
:10115000AF20800000F070FB159D0021280001F0F9
:1011600015FE280001F0D6FC4B46D8461E60D3463B
:101170001DE7049A013B1360002BACD0089B1A7842
:101180000132D2B21A70062EB4D91223E370E3777B
:101190000C2EB1D9B6E7039A013B1360002B96D110
:1011A0008DE70B2344460E9E0F9D0193069B002B5B
:1011B00000D0A3E0059B002B5DD1019B002B00D04C
:1011C0006EE7002D00D071E70B9A1368002B00D159
:1011D0006FE7002302971F000C9BB046079456460A
:1011E00014009A4604E0236801350C37AB421BD942
:1011F00033685B5D002BF6D153464A461B68126884
:10120000DB599B1A0933EED14346002B02D0013B38
:10121000DBB298465B4614221A60FFF72BFD236869
:1012200001350C37AB42E3D85B461D68B246029FDE
:101230004646079C002D00D13BE737E70C236B4364
:10124000783BDBB2237123722373237423752376D7
:1012500016E74346029300230793EEE60122C254A9
:101260005B461D68069B44460E9E002B46D1059B9F
:10127000002B00D117E71A0094469B006344013A03
:101280005B00D2B2DBB20592E27ED218D2B2E27635
:10129000E27D9A18D2B2E275A27F9A18D2B2A277F2
:1012A000A278D318DBB2A37087E7C046C40600203B
:1012B00010070020C0070020E005002000080020E3
:1012C000C40700209453000804080020FC070020F5
:1012D000F4070020F0070020EC070020E4070020BE
:1012E000106B0008607E000894050020E8070020CD
:1012F000F807002074530008102700001A009446D5
:101300009B006344013A5B00D2B2DBB20692627E7C
:10131000D218D2B26276627D9A18D2B26275627CBD
:101320009A18D2B26274627BD318DBB2637341E75E
:101330000B9B18684346002B32D0079B002B34D1FF
:101340000733069300284CD053461B6808229C465E
:101350004B4621000E9606001B684446D31A0293A2
:101360000C9B0F951A6860460023884635000DE0F7
:10137000002C06D0029E1168B4466144172900D89B
:101380006CE701330C32AB4200D30AE7C15C0029A1
:10139000F7D1117A0029EBD007990029EAD1F0E7BB
:1013A000002815D007230593CEE70723059306935E
:1013B0000028C9D1069A94469300013AD2B2069207
:1013C000072263445B0005920432DBB201929EE780
:1013D000069B002BEED106230B220593019240338E
:1013E00052E70B22013B0693019240338FE7C04640
:1013F000094B10B5984207D0084B984200D010BD59
:101400000022074B1A70FAE7064A13780133DBB261
:101410001370FFF78BF9F2E710070020C4060020D5
:1014200004080020C007002001220A4B82B0196C7A
:1014300011431964196C0A4080210092009ADA6BFA
:1014400049050A43DA63DB6B0B400193019B02B051
:101450007047C04600100240D0B5040092B014227C
:10146000002104A803F01CFD202200210AA803F09B
:1014700017FD224B22689A4201D012B0D0BD04233E
:101480000AA80A9301F01CF8002834D180211C4BD3
:1014900049011A6CA0200A431A641A6C00260A40FB
:1014A0000192019A0122596B002711435963596B2C
:1014B00000240A400292029A0222596BC00511438D
:1014C00059635B6B04A91A400392039B0622022313
:1014D0000696079704920593089400F0AFFA10223D
:1014E0000223084804A904920593069607970894D6
:1014F00000F0A4FAC1E7FFF709F9C7E7003001409F
:10150000001002400004005000B50368304A87B064
:1015100093422BD08022D20593420AD02D4A934287
:1015200011D02D4A93423FD02C4A934231D007B07C
:1015300000BD01232A4AD16B1943D163D26B1340FA
:101540000293029BF3E78021254B09021A6C1320BA
:101550000A431A641B6C00220B4003930021039B77
:1015600000F03AFA132000F04CFAE0E780211C4B1F
:1015700009011A6C0D200A431A641B6C00220B40EF
:1015800001930021019B00F027FA0D2000F039FAA9
:10159000CDE78021124BC9021A6C0A431A641B6CF6
:1015A0000B400593059BC2E780210D4B89021A6C05
:1015B00015200A431A641B6C00220B40049300217F
:1015C000049B00F009FA152000F01BFAAFE7C046B3
:1015D000002C014000200040004401400048014030
:1015E00000100240084B026882B09A4201D002B05B
:1015F00070470223054AD16B1943D163D26B134064
:101600000193019BF3E7C046000400400010024034
:1016100010B5040088B01422002102A803F040FC99
:101620002368154A934204D0144A934215D008B057
:1016300010BD0123124A4020516B1943516302210E
:10164000526B029003911A400092009AA02002A9C6
:10165000C005069300F0F2F9E9E70123084A516B4F
:1016600019435163526B134001938022019B022363
:10167000029203930523E9E700040040004801407B
:1016800000100240054B02689A4200D070470221C8
:10169000034AD36B8B43D363F8E7C0460004004092
:1016A00000100240FEE7C046FEE7C0467047C04655
:1016B0007047C04610B500F0A3F810BD10B5024841
:1016C00001F0EAFB10BDC0467806002010B50248C4
:1016D00001F0E2FB10BDC0461007002010B5024823
:1016E00001F0DAFB10BDC046C40600200D48854657
:1016F00002F0FAFB002103E00B4B5B58435004312E
:101700000A480B4B42189A42F6D30A4A02E00023D9
:1017100013600432084B9A42F9D303F023FCFFF71D
:10172000F9FBFEE700600020F094000800000020B4
:101730006C0500206C0500201C0B0020FEE780B526
:1017400082B000AFFB1D00221A70032000F00EF8DB
:10175000031E03D0FB1D01221A7001E0FFF764FE97
:10176000FB1D1B781800BD4602B080BD90B585B04A
:1017700000AF78600F23FB1800221A701D4B1B78F6
:10178000002B2BD01C4B1C681A4B1B781900FA231A
:101790009800FEF795FC030019002000FEF790FC6E
:1017A0000300180000F03DF9031E12D17B68032BE3
:1017B0000AD8796801235B420022180000F00CF976
:1017C0000E4B7A681A600DE00F23FB1801221A7085
:1017D00008E00F23FB1801221A7003E00F23FB1807
:1017E00001221A700F23FB181B781800BD4605B0A4
:1017F00090BDC0460400002008000020000000202A
:1018000080B500AF054B1B781A00054B1B68D2183A
:10181000034B1A60C046BD4680BDC0460400002090
:101820000808002080B500AF024B1B681800BD46B9
:1018300080BDC0460808002080B584B000AF786045
:10184000FFF7F0FF0300BB607B68FB60FB680133C0
:1018500005D00A4B1B781A00FB689B18FB60C0463A
:10186000FFF7E0FF0200BB68D31AFA689A42F7D884
:10187000C046C046BD4604B080BDC046040000203E
:1018800080B582B000AF0200FB1D1A70FB1D1B78F3
:101890007F2B09D8FB1D1B781A001F231A40044B0D
:1018A000012191400A001A60C046BD4602B080BDC9
:1018B00000E100E090B583B000AF02003960FB1D8D
:1018C0001A70FB1D1B787F2B28D82F4AFB1D1B7815
:1018D0005BB29B08C0339B009B58FA1D1278110025
:1018E00003220A40D200FF2191400A00D2431A404D
:1018F00011003B689B01FF221A40FB1D1B7818005A
:1019000003230340DB009A401F48FB1D1B785BB29A
:101910009B080A43C0339B001A5031E01B4AFB1D51
:101920001B7819000F230B40083B9B0806339B00D4
:10193000D31804331B68FA1D1278110003220A40E1
:10194000D200FF2191400A00D2431A4011003B68A7
:101950009B01FF221A40FB1D1B7818000323034044
:10196000DB009A400948FB1D1B781C000F23234015
:10197000083B9B080A4306339B00C31804331A60D4
:10198000C046BD4603B090BD00E100E000ED00E0C0
:1019900080B582B000AF78607B685A1E80235B04FC
:1019A0009A4201D3012310E00A4B7A68013A5A6047
:1019B00001235B4203211800FFF77CFF054B002247
:1019C0009A60044B07221A6000231800BD4602B03B
:1019D00080BDC04610E000E080B584B000AFB960C3
:1019E0007A600F217B18021C1A70BA687B181B786A
:1019F0005BB211001800FFF75DFFC046BD4604B0A2
:101A000080BD80B582B000AF0200FB1D1A70FB1DC7
:101A10001B785BB21800FFF733FFC046BD4602B02B
:101A200080BD80B582B000AF78607B681800FFF79A
:101A3000AFFF03001800BD4602B080BD80B586B080
:101A400000AF7860396000233B6153E13B681B685D
:101A500001213A6991400A001340FB60FB68002BAA
:101A600000D144E13B685B68022B03D03B685B68B4
:101A7000122B25D13B69DA087B6808329200D358D3
:101A80007B613B69072213409B000F229A401300A1
:101A9000DA437B6913407B613B681B690F221A4064
:101AA0003B6907210B409B009A4013007A6913435E
:101AB0007B613B69DA087B68083292007969D15012
:101AC0007B681B687B613B695B0003229A401300C3
:101AD000DA437B6913407B613B685B6803221A40F1
:101AE0003B695B009A4013007A6913437B617B6812
:101AF0007A691A603B685B68012B0BD03B685B68B6
:101B0000022B07D03B685B68112B03D03B685B68F6
:101B1000122B30D17B689B687B613B695B000322A1
:101B20009A401300DA437B6913407B613B68DA68B3
:101B30003B695B009A4013007A6913437B617B68C1
:101B40007A699A607B685B687B6101223B699A4095
:101B50001300DA437B6913407B613B685B681B09B8
:101B600001221A403B699A4013007A6913437B6152
:101B70007B687A695A603B685B68032B17D07B6887
:101B8000DB687B613B695B0003229A401300DA4308
:101B90007B6913407B613B689A683B695B009A40B4
:101BA00013007A6913437B617B687A69DA603B686A
:101BB0005A6880235B05134000D198E0534A3B6983
:101BC0009B0818339B009B587B613B6903221340A1
:101BD000DB000F229A401300DA437B6913407B61DC
:101BE0007A68A023DB059A4219D07B68484A934261
:101BF00013D07B68474A93420DD07B68464A934294
:101C000007D07B68454A934201D1052308E00623AB
:101C100006E0032304E0022302E0012300E00023A6
:101C20003A6903210A40D20093407A6913437B61E9
:101C300036493B699B0818339B007A695A50334AEE
:101C40008023D3587B61FB68DA437B6913407B6157
:101C50003B685A6880235B02134003D07A69FB68B3
:101C600013437B61294980227B698B50274A842357
:101C7000D3587B61FB68DA437B6913407B613B6827
:101C80005A6880239B02134003D07A69FB68134390
:101C90007B611E4984227B698B501C4B1B687B61D6
:101CA000FB68DA437B6913407B613B685A68802399
:101CB0005B03134003D07A69FB6813437B61134BCA
:101CC0007A691A60114B5B687B61FB68DA437B6958
:101CD00013407B613B685A6880239B03134003D009
:101CE0007A69FB6813437B61084B7A695A603B69E8
:101CF00001333B613B681A683B69DA40131E00D030
:101D0000A4E6C046C046BD4606B080BD00180240ED
:101D10000004005000080050000C00500014005057
:101D200080B584B000AF78600A00BB1C1A807B6865
:101D30001B69BA1C1288134004D00F23FB18012220
:101D40001A7003E00F23FB1800221A700F23FB18F0
:101D50001B781800BD4604B080BD80B582B000AFCE
:101D6000786008001100BB1C021C1A807B1C0A1C36
:101D70001A707B1C1B78002B04D0BB1C1A887B6854
:101D80009A6103E0BB1C1A887B689A62C046BD4614
:101D900002B080BD80B586B000AF78607B68002B54
:101DA00001D101230FE27B681B680122134000D19F
:101DB00069E0C84B9B68382213407B617B69082B24
:101DC00005D17B685B68002B5DD10123FBE17B685B
:101DD0005A6880235B029A4207D1BE4B1A68BD4BFA
:101DE000802149020A431A6020E07B685A68A023D8
:101DF000DB029A420ED1B74B1A68B64B8021C9025A
:101E00000A431A60B34B1A68B24B802149020A4355
:101E10001A600BE0AF4B1A68AE4BAF490A401A602C
:101E2000AC4B1A68AB4BAD490A401A607B685B68E3
:101E3000002B14D0FFF7F6FC03003B6108E0FFF72E
:101E4000F1FC02003B69D31A642B01D90323BAE1E8
:101E5000A04B1A6880239B021340F0D013E0FFF7D9
:101E6000E1FC03003B6108E0FFF7DCFC02003B699A
:101E7000D31A642B01D90323A5E1964B1A6880235A
:101E80009B021340F0D17B681B680222134000D1F3
:101E900086E0904B9B68382213407B617B69002B66
:101EA0002FD17B68DB68002B01D101238BE1894BAB
:101EB0005B688B4A134019007B685B691A02854B8B
:101EC0000A435A607B69002B12D1824B1B68854AFA
:101ED000134019007B681A697E4B0A431A607D4BD8
:101EE0001B68DB0A072213407F4ADA407F4B1A60E7
:101EF0007F4B1B681800FFF739FC031E50D00123ED
:101F000061E17B68DB68002B30D0724B1B68754A3F
:101F1000134019007B681A696E4B0A431A606D4BB7
:101F20001A686C4B802149000A431A60FFF77AFC5B
:101F300003003B6108E0FFF775FC02003B69D31A20
:101F4000022B01D903233EE1624B1A688023DB0098
:101F50001340F0D05F4B5B68614A134019007B6807
:101F60005B691A025B4B0A435A6019E0594B1A68C5
:101F7000584B60490A401A60FFF754FC03003B616C
:101F800008E0FFF74FFC02003B69D31A022B01D98E
:101F9000032318E14F4B1A688023DB001340F0D174
:101FA0007B681B680822134042D04A4B9B6838224A
:101FB0001340182B05D17B689B69002B38D1012376
:101FC00001E17B689B69002B19D0424B1A6E414B93
:101FD00001210A431A66FFF725FC03003B6108E074
:101FE000FFF720FC02003B69D31A022B01D903231F
:101FF000E9E0384B1B6E02221340F1D018E0354B5C
:102000001A6E344B01218A431A66FFF70BFC03005A
:102010003B6108E0FFF706FC02003B69D31A022B84
:1020200001D90323CFE02B4B1B6E02221340F1D1C9
:102030007B681B680422134000D184E00F23FB1847
:1020400000221A70234B9B6838221340202B06D1A4
:102050007B689B68002B00D075E00123B3E07B68B0
:102060009B68012B06D11B4BDA6D1A4B01210A43E9
:10207000DA651CE07B689B68052B0CD1154BDA6D8B
:10208000144B04210A43DA65124BDA6D114B01211E
:102090000A43DA650BE00F4BDA6D0E4B01218A43E0
:1020A000DA650C4BDA6D0B4B04218A43DA657B68E9
:1020B0009B68002B28D0FFF7B5FB03003B611DE0B8
:1020C000FFF7B0FB02003B69D31A0B4A934215D9C4
:1020D000032378E000100240FFFFFEFFFFFFFBFF3D
:1020E000FF80FFFFFFC7FFFF006CDC02080000203D
:1020F00000000020FFFEFFFF88130000344BDB6D63
:1021000002221340DCD013E0FFF78CFB03003B619D
:1021100009E0FFF787FB02003B69D31A2D4A93427F
:1021200001D903234FE02A4BDB6D02221340F0D18B
:102130000F23FB181B78012B05D1254BDA6B244BA1
:1021400025490A40DA637B681B681022134039D0A6
:102150007B68DB69002B1BD01D4B1A681C4B802150
:10216000C9030A431A60FFF75DFB03003B6108E007
:10217000FFF758FB02003B69D31A022B01D9032356
:1021800021E0134B1A6880231B041340F0D019E0A0
:102190000F4B1A680E4B11490A401A60FFF742FBB9
:1021A00003003B6108E0FFF73DFB02003B69D31AE7
:1021B000022B01D9032306E0054B1A6880231B0478
:1021C0001340F0D100231800BD4606B080BDC046C4
:1021D0000010024088130000FFFFFFEFFFFFBFFF6A
:1021E00080B584B000AF786039607B68002B01D186
:1021F0000123F6E07D4B1B68072213403A689A42A0
:102200001ED97A4B1B68072293431900774B3A6813
:102210000A431A60FFF706FB0300FB6009E0FFF7C3
:1022200001FB0200FB68D31A714A934201D90323D0
:10223000D7E06E4B1B68072213403A689A42EED1F2
:102240007B681B680222134017D07B681B6804223E
:10225000134008D0674B9B68674A1A40654BB02112
:1022600009010A439A60634B9B68644A1340190052
:102270007B68DA685F4B0A439A607B681B680122BF
:10228000134000D161E05B4B1B681C229343190093
:102290007B689A68574B0A431A607B685B68012B1E
:1022A00007D1544B1A6880239B0213402BD1012382
:1022B00097E07B685B68002B07D14E4B1A68802340
:1022C000DB0013401FD101238BE07B685B68022B8E
:1022D00007D1484B1A6880231B04134013D10123F4
:1022E0007FE07B685B68032B06D1424B1B6E0222AA
:1022F000134008D1012374E03E4BDB6D02221340F2
:1023000001D101236DE03B4B9B68072293431900E9
:102310007B685A68374B0A439A60FFF783FA0300D9
:10232000FB6009E0FFF77EFA0200FB68D31A304A2F
:10233000934201D9032354E02E4B9B6838221A4064
:102340007B685B68DB009A42ECD1284B1B68072254
:1023500013403A689A421ED2244B1B6807229343CB
:102360001900224B3A680A431A60FFF75BFA030030
:10237000FB6009E0FFF756FA0200FB68D31A1C4A1B
:10238000934201D903232CE0184B1B68072213400A
:102390003A689A42EED17B681B680422134009D048
:1023A000144B9B68164A134019007B681A69114B3D
:1023B0000A439A6000F02CF801000E4B9B681B0A40
:1023C0000F221A400F4B9200D3581F2213400A00CD
:1023D000DA400D4B1A600D4B1B681800FFF7C6F969
:1023E00003001800BD4604B080BDC0460020024076
:1023F0008813000000100240FF84FFFFFFF0FFFF82
:10240000FF8FFFFFA49400080800002000000020B8
:1024100080B584B000AF274B1B689B080722134090
:102420000133BB60234B9B68382213400FD1214BF3
:102430001B68DB0A0722134001229A4013007B60CD
:1024400079681D48FDF73CFE0300FB6027E0194B4F
:102450009B6838221340082B02D1184BFB601EE00A
:10246000144B9B6838221340202B03D180231B027E
:10247000FB6014E00F4B9B6838221340182B03D1EC
:10248000FA23DB01FB600AE00A4B9B683822134009
:10249000102B02D1084BFB6001E00023FB60B96800
:1024A000F868FDF70DFE0300FB60FB681800BD46F1
:1024B00004B080BD00100240006CDC0200127A0003
:1024C00080B586B000AF78601323FB1800221A7025
:1024D0001223FB1800221A707B681B6840221340ED
:1024E00000D179E011203B1800221A706A4BDA6B98
:1024F00080235B05134010D1674BDA6B664B80215C
:1025000049050A43DA63644BDA6B80235B051340A9
:10251000BB60BB683B1801221A705F4BDA6DC023A9
:102520009B0013407B617B69002B19D07B68DB69C2
:102530007A699A4214D0584BDB6D584A13407B613C
:10254000554BDA6D544B802149020A43DA65524BF0
:10255000DA6D514B52490A40DA654F4B7A69DA65B8
:102560007B690122134016D0FFF75CF90300FB6082
:102570000CE0FFF757F90200FB68D31A494A93426F
:1025800004D91323FB1803221A7004E0424BDB6DBD
:1025900002221340EDD01323FB181B78002B0AD125
:1025A0003D4BDB6D3D4A134019007B68DA693A4BBD
:1025B0000A43DA6505E01223FB181322BA181278D1
:1025C0001A701123FB181B78012B05D1324BDA6BE3
:1025D000314B35490A40DA637B681B68012213409E
:1025E00009D02D4B5B6D0322934319007B689A68D9
:1025F000294B0A435A657B681B680222134009D0A5
:10260000254B5B6D294A134019007B68DA68224B21
:102610000A435A657B681B682022134008D01E4B72
:102620005B6D9B0099087B689A691B4B0A435A654E
:102630007B681B680822134009D0174B9B6D1C4A0E
:10264000134019007B685A69134B0A439A657B68EB
:102650001B680422134009D00F4B5B6D154A1340D1
:1026600019007B681A690C4B0A435A657B681B6822
:102670008022134009D0084B1B68E02293431900C5
:102680007B685A68044B0A431A601223FB181B78B4
:102690001800BD4606B080BD00100240FFFCFFFFE1
:1026A000FFFFFEFF88130000FFFFFFEFFFCFFFFFDC
:1026B000FFEFFFFFFF3FFFFF80B584B000AF786002
:1026C0007B68002B01D10123A8E07B685B6A002BAB
:1026D00009D17B685A6882235B009A4209D07B68E3
:1026E0000022DA6105E07B6800221A617B68002223
:1026F0005A617B6800229A627B685D229B5CDBB238
:10270000002B07D17B685C22002199547B6818005C
:10271000FEF7A2FE7B685D22022199547B681B684C
:102720001A687B681B6840218A431A607B68DA68F4
:10273000E023DB009A4202D90023FB6002E0802301
:102740005B01FB607B68DA68F0231B019A4208D0CA
:102750007B68DA68E023DB009A4202D07B680022C3
:102760009A627B685A6882235B001A407B6899688A
:1027700084231B020B401A437B681B6902210B4018
:102780001A437B685B6901210B401A437B68996996
:1027900080239B000B401A437B68DB6938210B4088
:1027A0001A437B681B6A80210B401A4311007B6827
:1027B0009A6A80239B011A407B681B680A431A604F
:1027C0007B689B691B0C04221A407B685B6A1021A2
:1027D0000B401A437B685B6B08210B401A437B68F4
:1027E000D968F0231B010B401A431100FA688023BB
:1027F0005B011A407B681B680A435A607B681B6850
:10280000DA697B681B6807490A40DA617B68002245
:102810001A667B685D220121995400231800BD4689
:1028200004B080BDFFF7FFFF80B582B000AF7860D5
:102830007B68002B01D101234AE07B683D229B5C31
:10284000DBB2002B07D17B683C22002199547B68C6
:102850001800FEF759FE7B683D22022199547B68DF
:102860001A687B6804331900100000F013FE7B68BF
:102870004822012199547B683E22012199547B68AA
:102880003F22012199547B684022012199547B68A1
:102890004122012199547B684222012199547B688D
:1028A0004322012199547B684422012199547B6879
:1028B0004522012199547B684622012199547B6865
:1028C0004722012199547B683D220121995400231C
:1028D0001800BD4602B080BD80B584B000AF7860FE
:1028E0007B683D229B5CDBB2012B01D0012335E0EC
:1028F0007B683D22022199547B681B68194A9342E8
:102900000AD07B681A688023DB059A4204D07B6872
:102910001B68154A934216D17B681B689B68134A53
:102920001340FB60FB68062B16D0FA6880235B021D
:102930009A4211D07B681B681A687B681B6801216A
:102940000A431A6008E07B681B681A687B681B688A
:1029500001210A431A6000E0C04600231800BD466A
:1029600004B080BD002C01400004004007000100BD
:1029700080B582B000AF78607B681B681B6A0D4A27
:1029800013400DD17B681B681B6A0B4A134007D1AB
:102990007B681B681A687B681B6801218A431A6080
:1029A0007B683D220121995400231800BD4602B0E6
:1029B00080BDC046111100004404000080B584B001
:1029C00000AF78607B683D229B5CDBB2012B01D0BD
:1029D00001233DE07B683D22022199547B681B68FE
:1029E000DA687B681B6801210A43DA607B681B6830
:1029F000194A93420AD07B681A688023DB059A4201
:102A000004D07B681B68154A934216D17B681B680B
:102A10009B68134A1340FB60FB68062B16D0FA68CC
:102A200080235B029A4211D07B681B681A687B681E
:102A30001B6801210A431A6008E07B681B681A685A
:102A40007B681B6801210A431A6000E0C04600232E
:102A50001800BD4604B080BD002C014000040040B9
:102A60000700010080B582B000AF78607B68002B62
:102A700001D101234AE07B683D229B5CDBB2002B45
:102A800007D17B683C22002199547B681800FEF72F
:102A9000A9FD7B683D22022199547B681A687B68F6
:102AA00004331900100000F0F5FC7B684822012176
:102AB00099547B683E22012199547B683F22012171
:102AC00099547B684022012199547B68412201215D
:102AD00099547B684222012199547B684322012149
:102AE00099547B684422012199547B684522012135
:102AF00099547B684622012199547B684722012121
:102B000099547B683D220121995400231800BD4649
:102B100002B080BD80B582B000AF78607B683D2296
:102B2000022199547B681B681B6A274A13400DD108
:102B30007B681B681B6A254A134007D17B681B68AA
:102B40001A687B681B6801218A431A607B68180039
:102B5000FEF798FD7B684822002199547B683E224D
:102B6000002199547B683F22002199547B684022C0
:102B7000002199547B684122002199547B684222AC
:102B8000002199547B684322002199547B68442298
:102B9000002199547B684522002199547B68462284
:102BA000002199547B684722002199547B683D227B
:102BB000002199547B683C2200219954002318007D
:102BC000BD4602B080BDC0461111000044040000A3
:102BD00080B584B000AF786039603B68002B08D1C5
:102BE0007B683E229B5CDBB2013B5A1E9341DBB209
:102BF00037E03B68042B08D17B683F229B5CDBB24B
:102C0000013B5A1E9341DBB22BE03B68082B08D1F5
:102C10007B6840229B5CDBB2013B5A1E9341DBB2D6
:102C20001FE03B680C2B08D17B6841229B5CDBB228
:102C3000013B5A1E9341DBB213E03B68102B08D1D5
:102C40007B6842229B5CDBB2013B5A1E9341DBB2A4
:102C500007E07B6843229B5CDBB2013B5A1E934139
:102C6000DBB2002B01D0012381E03B68002B04D1B3
:102C70007B683E220221995423E03B68042B04D157
:102C80007B683F22022199541BE03B68082B04D14A
:102C90007B6840220221995413E03B680C2B04D13D
:102CA0007B684122022199540BE03B68102B04D130
:102CB0007B6842220221995403E07B68432202216F
:102CC00099547B681B6839680122180000F096FF50
:102CD0007B681B68284A934209D07B681B68274A97
:102CE000934204D07B681B68254A934201D101239B
:102CF00000E00023002B08D07B681B685A6C7B68BF
:102D00001B68802109020A435A647B681B681A4ABF
:102D100093420AD07B681A688023DB059A4204D06C
:102D20007B681B68174A934216D17B681B689B68B7
:102D3000154A1340FB60FB68062B16D0FA68802307
:102D40005B029A4211D07B681B681A687B681B681B
:102D500001210A431A6008E07B681B681A687B68D7
:102D60001B6801210A431A6000E0C04600231800D6
:102D7000BD4604B080BDC046002C01400044014067
:102D800000480140000400400700010080B582B007
:102D900000AF786039607B681B68396800221800D2
:102DA00000F02CFF7B681B68354A934209D07B6892
:102DB0001B68344A934204D07B681B68324A9342B2
:102DC00001D1012300E00023002B13D07B681B6896
:102DD0001B6A2E4A13400DD17B681B681B6A2C4A64
:102DE000134007D17B681B685A6C7B681B682949B4
:102DF0000A405A647B681B681B6A244A13400DD141
:102E00007B681B681B6A224A134007D17B681B68DA
:102E10001A687B681B6801218A431A603B68002B93
:102E200004D17B683E220121995423E03B68042BA6
:102E300004D17B683F22012199541BE03B68082B99
:102E400004D17B6840220121995413E03B680C2B8C
:102E500004D17B684122012199540BE03B68102B7F
:102E600004D17B6842220121995403E07B6843220C
:102E70000121995400231800BD4602B080BDC04610
:102E8000002C0140004401400048014011110000A5
:102E900044040000FF7FFFFF80B584B000AF78607E
:102EA0007B681B68DB68FB607B681B681B69BB6019
:102EB000BB680222134021D0FB68022213401DD0C0
:102EC0007B681B68032252421A617B6801221A77D1
:102ED0007B681B689B690322134004D07B68180041
:102EE00000F0C0FA07E07B68180000F0B3FA7B68D6
:102EF000180000F0BFFA7B6800221A77BB68042232
:102F0000134022D0FB68042213401ED07B681B684C
:102F1000052252421A617B6802221A777B681B687D
:102F20009A69C0239B00134004D07B68180000F00E
:102F300099FA07E07B68180000F08CFA7B681800AB
:102F400000F098FA7B6800221A77BB6808221340C9
:102F500021D0FB68082213401DD07B681B68092222
:102F600052421A617B6804221A777B681B68DB690E
:102F70000322134004D07B68180000F073FA07E0C6
:102F80007B68180000F066FA7B68180000F072FA9F
:102F90007B6800221A77BB681022134022D0FB689E
:102FA000102213401ED07B681B68112252421A6106
:102FB0007B6808221A777B681B68DA69C0239B004C
:102FC000134004D07B68180000F04CFA07E07B68DF
:102FD000180000F03FFA7B68180000F04BFA7B689D
:102FE00000221A77BB68012213400CD0FB68012233
:102FF000134008D07B681B68022252421A617B682A
:103000001800FEF7F5F9BB688022134004D1BA68B6
:1030100080239B0113400BD0FB688022134007D014
:103020007B681B681E4A1A617B68180000F016FF57
:10303000BA6880235B0013400BD0FB6880221340EA
:1030400007D07B681B68174A1A617B68180000F07C
:103050000DFFBB68402213400CD0FB684022134098
:1030600008D07B681B68412252421A617B681800B5
:1030700000F008FABB68202213400CD0FB68202225
:10308000134008D07B681B68212252421A617B687A
:10309000180000F0DBFEC046BD4604B080BDC0464F
:1030A0007FDFFFFFFFFEFFFF80B586B000AFF86057
:1030B000B9607A601723FB1800221A70FB683C2263
:1030C0009B5C012B01D10223E5E0FB683C2201213E
:1030D00099547B68142B00D9D1E07B689A00704B1F
:1030E000D3181B689F46FB681B68BA68110018005C
:1030F00000F04CFAFB681B689A69FB681B680821A2
:103100000A439A61FB681B689A69FB681B68042183
:103110008A439A61FB681B689969BB681A69FB68F6
:103120001B680A439A61AFE0FB681B68BA6811002C
:10313000180000F0ABFAFB681B689A69FB681B6813
:10314000802109010A439A61FB681B689A69FB6840
:103150001B6854490A409A61FB681B689969BB68FF
:103160001B691A02FB681B680A439A618CE0FB68C2
:103170001B68BA681100180000F006FBFB681B68AA
:10318000DA69FB681B6808210A43DA61FB681B687F
:10319000DA69FB681B6804218A43DA61FB681B68F3
:1031A000D969BB681A69FB681B680A43DA616BE07E
:1031B000FB681B68BA681100180000F067FBFB6829
:1031C0001B68DA69FB681B68802109010A43DA6120
:1031D000FB681B68DA69FB681B6832490A40DA61E0
:1031E000FB681B68D969BB681B691A02FB681B680E
:1031F0000A43DA6148E0FB681B68BA6811001800EE
:1032000000F0A8FBFB681B685A6DFB681B6808216F
:103210000A435A65FB681B685A6DFB681B680421EA
:103220008A435A65FB681B68596DBB681A69FB685D
:103230001B680A435A6527E0FB681B68BA681100DF
:10324000180000F0E1FBFB681B685A6DFB681B6807
:10325000802109010A435A65FB681B685A6DFB68A7
:103260001B6810490A405A65FB681B68596DBB68AA
:103270001B691A02FB681B680A435A6504E017239E
:10328000FB1801221A70C046FB683C2200219954A9
:103290001723FB181B781800BD4606B080BDC0463A
:1032A00050940008FFFBFFFF80B584B000AF78604A
:1032B00039600F23FB1800221A707B683C229B5C4C
:1032C000012B01D10223BCE07B683C2201219954EF
:1032D0007B683D22022199547B681B689B68BB6018
:1032E000BB685A4A1340BB60BB68594A1340BB6075
:1032F0007B681B68BA689A603B681B6880229201F1
:10330000934240D080229201934200D988E08022EB
:103310005201934200D188E080225201934200D9A9
:103320007EE0702B18D000D97AE0602B4FD000D906
:1033300076E0502B3BD000D972E0402B57D000D91B
:103340006EE0302B63D06BD8202B60D068D8002B78
:103350005DD0102B5BD063E07B6818683B68996890
:103360003B685A683B68DB6800F028FC7B681B6898
:103370009B68BB60BB6877221343BB607B681B689C
:10338000BA689A6052E07B6818683B6899683B6845
:103390005A683B68DB6800F011FC7B681B689A6820
:1033A0007B681B688021C9010A439A603EE07B6804
:1033B00018683B6859683B68DB681A0000F082FBBC
:1033C0007B681B685021180000F0DCFB2EE07B6856
:1033D00018683B6859683B68DB681A0000F0A0FB7E
:1033E0007B681B686021180000F0CCFB1EE07B6846
:1033F00018683B6859683B68DB681A0000F062FB9C
:103400007B681B684021180000F0BCFB0EE07B6865
:103410001A683B681B681900100000F0B3FB05E058
:103420000F23FB1801221A7000E0C0467B683D2282
:10343000012199547B683C22002199540F23FB18E9
:103440001B781800BD4604B080BDC04688FFCEFF83
:10345000FF00FFFF80B582B000AF7860C046BD4678
:1034600002B080BD80B582B000AF7860C046BD4676
:1034700002B080BD80B582B000AF7860C046BD4666
:1034800002B080BD80B582B000AF7860C046BD4656
:1034900002B080BD80B584B000AF786039607B68D1
:1034A0001B68FB607B68334A934208D07A688023AC
:1034B000DB059A4203D07B682F4A934208D1FB6810
:1034C00070229343FB603B685B68FA681343FB60C0
:1034D0007B68284A934214D07A688023DB059A429D
:1034E0000FD07B68244A93420BD07B68234A9342D7
:1034F00007D07B68224A934203D07B68214A9342DB
:1035000008D1FB68204A1340FB603B68DB68FA681F
:103510001343FB60FB68802293431A003B685B699E
:103520001343FB603B689A687B68DA623B681A6801
:103530007B689A627B680F4A934207D07B68104A87
:10354000934203D07B680F4A934203D13B681A69C8
:103550007B681A637B681B6804221A437B681A60C5
:103560007B6801225A617B68FA681A60C046BD46D2
:1035700004B080BD002C0140000400400020004049
:103580000044014000480140FFFCFFFF80B586B0C9
:1035900000AF786039607B681B6A7B617B681B6A5F
:1035A000012293431A007B681A627B685B683B6167
:1035B0007B689B69FB60FB682E4A1340FB60FB68DD
:1035C00003229343FB603B681B68FA681343FB606C
:1035D0007B69022293437B613B689B687A69134352
:1035E0007B617B68244A934207D07B68234A9342DD
:1035F00003D07B68224A93420CD17B690822934313
:103600007B613B68DB687A6913437B617B690422D9
:1036100093437B617B68184A934207D07B68174AC3
:10362000934203D07B68164A934211D13B69154AF5
:1036300013403B613B69144A13403B613B685B6943
:103640003A6913433B613B689B693A6913433B61A9
:103650007B683A695A607B68FA689A613B685A6885
:103660007B685A637B687A691A62C046BD4606B0B9
:1036700080BDC0468FFFFEFF002C0140004401408A
:1036800000480140FFFEFFFFFFFDFFFF80B586B051
:1036900000AF786039607B681B6A7B617B681B6A5E
:1036A000102293431A007B681A627B685B683B6157
:1036B0007B689B69FB60FB682C4A1340FB60FB68DE
:1036C0002B4A1340FB603B681B681B02FA681343DC
:1036D000FB607B69202293437B613B689B681B01F5
:1036E0007A6913437B617B68224A93420DD17B69DF
:1036F000802293437B613B68DB681B017A6913433B
:103700007B617B69402293437B617B68194A9342CA
:1037100007D07B68184A934203D07B68174A9342CC
:1037200013D13B69164A13403B613B69154A13406C
:103730003B613B685B699B003A6913433B613B68B3
:103740009B699B003A6913433B617B683A695A6005
:103750007B68FA689A613B685A687B689A637B6801
:103760007A691A62C046BD4606B080BDFF8FFFFE73
:10377000FFFCFFFF002C01400044014000480140D5
:10378000FFFBFFFFFFF7FFFF80B586B000AF78605B
:1037900039607B681B6A7B617B681B6A314A1A400F
:1037A0007B681A627B685B683B617B68DB69FB60F6
:1037B000FB682D4A1340FB60FB6803229343FB60C8
:1037C0003B681B68FA681343FB607B69274A134018
:1037D0007B613B689B681B027A6913437B617B6852
:1037E000234A93420DD17B69224A13407B613B6897
:1037F000DB681B027A6913437B617B691E4A1340B5
:103800007B617B681A4A934207D07B681B4A9342CC
:1038100003D07B681A4A934213D13B69194A13407B
:103820003B613B69184A13403B613B685B691B0184
:103830003A6913433B613B689B691B013A69134337
:103840003B617B683A695A607B68FA68DA613B6879
:103850005A687B68DA637B687A691A62C046BD463B
:1038600006B080BDFFFEFFFF8FFFFEFFFFFDFFFFE5
:10387000002C0140FFF7FFFFFFFBFFFF004401406A
:1038800000480140FFEFFFFFFFDFFFFF80B586B07C
:1038900000AF786039607B681B6A3B617B681B6A9C
:1038A000244A1A407B681A627B685B687B617B688C
:1038B000DB69FB60FB68204A1340FB60FB681F4A22
:1038C0001340FB603B681B681B02FA681343FB60F4
:1038D0003B691B4A13403B613B689B681B033A6989
:1038E00013433B617B68174A934207D07B68164AB3
:1038F000934203D07B68154A934209D17B69144AED
:1039000013407B613B685B699B017A6913437B6170
:103910007B687A695A607B68FA68DA613B685A6842
:103920007B681A647B683A691A62C046BD4606B075
:1039300080BDC046FFEFFFFFFF8FFFFEFFFCFFFFD4
:10394000FFDFFFFF002C0140004401400048014020
:10395000FFBFFFFF80B586B000AF786039607B683D
:103960001B6A3B617B681B6A214A1A407B681A62AA
:103970007B685B687B617B685B6DFB60FB681D4AF5
:103980001340FB603B681B68FA681343FB603B69AC
:10399000194A13403B613B689B681B043A69134317
:1039A0003B617B68154A934207D07B68144A934277
:1039B00003D07B68134A934209D17B690C4A1340B8
:1039C0007B613B685B691B027A6913437B617B689F
:1039D0007A695A607B68FA685A653B685A687B68FE
:1039E0009A657B683A691A62C046BD4606B080BDDA
:1039F000FFFFFEFF8FFFFEFFFFFFFDFF002C0140DA
:103A0000004401400048014080B586B000AF7860B6
:103A100039607B681B6A3B617B681B6A224A1A40DB
:103A20007B681A627B685B687B617B685B6DFB60AF
:103A3000FB681E4A1340FB603B681B681B02FA6868
:103A40001343FB603B691A4A13403B613B689B6828
:103A50001B053A6913433B617B68164A934207D0C2
:103A60007B68154A934203D07B68144A934209D17C
:103A70007B69134A13407B613B685B699B027A69EF
:103A800013437B617B687A695A607B68FA685A6580
:103A90003B685A687B68DA657B683A691A62C04697
:103AA000BD4606B080BDC046FFFFEFFFFF8FFFFEA3
:103AB000FFFFDFFF002C01400044014000480140AF
:103AC000FFFFFBFF80B586B000AFF860B9607A6099
:103AD000FB681B6A7B61FB681B6A012293431A0027
:103AE000FB681A62FB689B693B613B69F022934368
:103AF0003B617B681B013A6913433B617B690A2286
:103B000093437B617A69BB6813437B61FB683A69C5
:103B10009A61FB687A691A62C046BD4606B080BDEC
:103B200080B586B000AFF860B9607A60FB681B6A48
:103B30007B61FB681B6A102293431A00FB681A62C0
:103B4000FB689B693B613B690D4A13403B617B68A5
:103B50001B033A6913433B617B69A02293437B615A
:103B6000BB681B017A6913437B61FB683A699A6100
:103B7000FB687A691A62C046BD4606B080BDC04681
:103B8000FF0FFFFF80B584B000AF786039607B68BD
:103B90009B68FB60FB68084A1340FB603A68FB685F
:103BA000134307221343FB607B68FA689A60C046A0
:103BB000BD4604B080BDC0468FFFCFFF80B586B044
:103BC00000AFF860B9607A603B60FB689B687B611E
:103BD0007B69094A13407B613B681A027B681A4380
:103BE000BB6813437A6913437B61FB687A699A6007
:103BF000C046BD4606B080BDFF00FFFF80B586B061
:103C000000AFF860B9607A60BB681F2213400122E0
:103C10009A4013007B61FB681B6A7A69D2431A40A1
:103C2000FB681A62FB681A6ABB681F210B4079683F
:103C300099400B001A43FB681A62C046BD4606B0A5
:103C400080BD000080B584B000AF786039607B68CB
:103C50003C229B5C012B01D1022350E07B683C227B
:103C6000012199547B683D22022199547B681B688D
:103C70005B68FB607B681B689B68BB607B681B683C
:103C8000214A934208D1FB68204A1340FB603B68FD
:103C90005B68FA681343FB60FB6870229343FB6028
:103CA0003B681B68FA681343FB607B681B68FA6813
:103CB0005A607B681B68144A93420AD07B681A6872
:103CC0008023DB059A4204D07B681B68104A93422C
:103CD0000CD1BB6880229343BB603B689B68BA6889
:103CE0001343BB607B681B68BA689A607B683D229F
:103CF000012199547B683C2200219954002318002B
:103D0000BD4604B080BDC046002C0140FFFF0FFF40
:103D10000004004080B584B000AF786039600023B3
:103D2000FB607B683C229B5C012B01D102236FE08E
:103D30007B683C2201219954FB68FF2293431A00BF
:103D40003B68DB681343FB60FB68334A1A403B68FF
:103D50009B681343FB60FB68304A1A403B685B6812
:103D60001343FB60FB682E4A1A403B681B681343F1
:103D7000FB60FB682B4A1A403B681B691343FB60DE
:103D8000FB68294A1A403B685B691343FB60FB6888
:103D9000264A1A403B681B6B1343FB60FB68244AAE
:103DA0001A403B689B691B041343FB60FB68214A74
:103DB0001A403B68DB691343FB607B681B681E4A43
:103DC00093421CD1FB681D4A1A403B689B6A1B0545
:103DD0001343FB60FB681A4A1A403B681B6A134393
:103DE000FB60FB68174A1A403B685B6A1343FB6041
:103DF000FB68154A1A403B68DB6A1343FB607B682B
:103E00001B68FA685A647B683C220021995400239D
:103E10001800BD4604B080BDFFFCFFFFFFFBFFFFA5
:103E2000FFF7FFFFFFEFFFFFFFDFFFFFFFBFFFFF1A
:103E3000FFFFF0FFFFFFFFEF002C0140FFFF0FFF30
:103E4000FFFFFFFEFFFFFFFDFFFFFFDF80B582B03A
:103E500000AF7860C046BD4602B080BD80B582B07C
:103E600000AF7860C046BD4602B080BD80B582B06C
:103E700000AF7860C046BD4602B080BD80B586B058
:103E800000AF7860144A154BD31A7B617B693B61A4
:103E9000134B1B68002B02D1114B124A1A60104BB6
:103EA0001A687B68D3183A699A4207D201F054F82D
:103EB00003000C221A6001235B4209E0084B1B68D7
:103EC000FB60074B1A687B68D218054B1A60FB68C9
:103ED0001800BD4606B080BD006000200004000050
:103EE0000C080020200B002080B500AF034B80227F
:103EF00012059A60C046BD4680BDC04600ED00E098
:103F00009E2110B5C905041CFCF752F900280AD0FF
:103F10009E21201CC90500F087FA00F007FC8023D1
:103F20001B06C01810BD201C00F000FCFAE70000C2
:103F3000F0B5C30F85B0440245000391640A2D0E0D
:103F400001932ED0FF2D39D08023E400DB047F3D88
:103F50001C4302950027039B5D025E00DB0F6D0A88
:103F6000360E039330D0FF2E3BD08023ED00DB04D0
:103F70001D4333007F3B00210398019A4240029881
:103F8000D2B2C31AB800084301380E2842D8FCF751
:103F900019F96CA87EA89DA87E6C6C9D7E2E2E2E95
:103FA000720001270294002CD5D02000FCF714F9F0
:103FB000773F431F9C403B1A0293CBE703270295B0
:103FC000002CC8D1013FC6E72B000121002DD3D022
:103FD0002800FCF701F9431F9D4076235B421B1A22
:103FE000C9E733000321002DC6D10139C4E73900E8
:103FF000019A022939D0032900D170E00025280058
:1040000001291ED16D026D0AC0052843D207104355
:1040100005B0F0BD64016D01AC4228D31A20012126
:10402000641B0126270049006400002F01DBA54224
:1040300001D8641B314301380028F3D1601E84414C
:104040000C4318007F30002824DD610704D00F21C5
:104050002140042900D00434210103D58033180005
:1040600023490C40E508FE28CCDD00250DE01B208F
:104070000021013BD5E78023DB031C4201D01D4218
:1040800029D08025019AED032543FF20BAE72C00B3
:10409000039AAEE701210025091A28001B29B1DC8B
:1040A0009E3325009C40CD40631E9C4125436B07F9
:1040B00004D00F232B40042B00D00435802328008C
:1040C000DB0418401D420FD1ED089BE7002380243C
:1040D0000193E403D5E7039B2C000193D1E7019200
:1040E000CFE7002528008DE7002501208AE7C0469C
:1040F000FFFFFFF770B54B00440245004E02C20FB0
:10410000640A01202D0E760A1B0EC90FFF2D06D161
:10411000002C13D1FF2B11D1002E06D00EE0FF2B67
:104120000CD09D420AD1B44208D100208A4205D069
:104130000130002D02D12000431E984170BD30B5E2
:10414000420245004C02C30F4800520A2D0E640A79
:10415000000EC90FFF2D01D1002A19D1FF2801D16E
:10416000002C15D1002D20D1002813D1002A1ED1FA
:10417000002C21D0012000291ED102381CE08542EC
:10418000F8DBA2420CD80020A24215D20130F2E79F
:10419000022008E0002AEDD099420AD18542EEDDE6
:1041A0000120002908D0404206E00028F4D1002C6C
:1041B000F2D10120002BF6D130BD30B542024500CE
:1041C0004C02C30F4800520A2D0E640A000EC90F9C
:1041D000FF2D01D1002A19D1FF2801D1002C15D1C2
:1041E000002D20D1002813D1002A1ED1002C21D06F
:1041F000012000291ED102381CE08542F8DBA242D2
:104200000CD80020A24215D20130F2E7022011E0C2
:10421000002AEDD099420AD18542EEDD0120002925
:1042200008D0404206E00028F4D1002CF2D1012051
:10423000002BF6D130BD0000F0B5C30F85B04702AA
:10424000440003917F0A240E02930AD0FF2C71D000
:1042500080227F3C26000023FF00D20417430193F5
:104260000CE001233E1E019308D03800FBF7B4FF99
:104270007626431F9F407642361A0194039B5C02C8
:104280005D00DB0F640A2D0E03935AD0FF2D64D01E
:1042900080232800E400DB041C437F3800230199BD
:1042A00086198800721C18430A2800DD7EE00299F6
:1042B000039D69400291022855DC0138012864D928
:1042C000B9B20D003B0C200CA4B2654341435C43E2
:1042D000434309191F002B0C5B189C4202D9802113
:1042E00049027F181904ADB24D19AC01611E8C4111
:1042F0001B0CAD0EDB192C439B011C431B0167D526
:10430000012361081C400C4310007F30002861DD50
:10431000630704D00F232340042B00D0043423016F
:1043200003D5803210003F4B1C40E108FE2834DDED
:1043300000214BE0032326000193002F9ED1013B77
:104340008DE720000123002CA9D0FBF745FF431F78
:104350009C4076235B42181AA0E728000323002C18
:104360009DD1013B9BE701218140A6200D00C000AB
:10437000054001421ED190208000014246D1B9384B
:10438000FF3801429CD003990291022BD0D0032B1D
:1043900042D000210800012BB6D1029B4902490AF4
:1043A000C0050843DB07184305B0F0BD0F2804D053
:1043B0000B28E8D03C00019BE7E78023DB031F428A
:1043C00001D01C4226D08021C9033943FF20E4E7F5
:1043D000320099E7012300211B1A08001B2BDCDCAB
:1043E0009E3221009440D940631E9C4121434B07DB
:1043F00004D00F230B40042B00D00431802308008D
:10440000DB041840194209D1C908C6E78027029584
:10441000FF03D8E7039B02932700D4E70021012084
:10442000BBE7C046FFFFFFF7F0B543025A0A85B06D
:104430004F02440002924E007A0A9446C50F009241
:10444000240E9B09360EC80FD200FF2E02D10100A8
:10445000002A01D101214140A01BA94200D093E0D4
:10446000002836DD002E13D1002A07D0461E012871
:1044700002D101249B181EE0FF2810D1DB08FF2881
:104480005ED1002B5CD08022D203FF20134357E083
:10449000FF2C00D13DE180210600C9040A4301211F
:1044A0001B2E07DC2020801B11008240F140501E93
:1044B000824111435B185A0100D411E1601CFE2CAB
:1044C00000D1D5E0012296491A405B080B40134306
:1044D00058E0002820D0301B002C08D1002B04D03D
:1044E000441E0128C5D0FF2808D11300C6E7FF2EBF
:1044F00000D107E180210400C9040B4301211B2CDA
:1045000007DC2020001B19008340E140581E834136
:10451000194334008B18CEE7FE21601C08422DD1D0
:10452000002C18D1002B00D1EAE0002A00D1DEE0F7
:104530009A182000D308520102D50120794A13406D
:10454000FF22C005D2055B0210405B0A1843ED074D
:10455000284305B0F0BD002B00D1D5E0002A00D1E2
:10456000D3E080210298C903884203D3009888428F
:1045700000D21300DB089C46019580E0FF2877D02D
:104580009B185B080400ABE0002827DD002E1DD13E
:10459000002A00D172E7461E012802D19B1A01248D
:1045A0000EE0FF2800D169E701211B2E07DC202047
:1045B000801B11008240F140501E824111435B1A62
:1045C0005A0100D48CE09B019E096FE0FF2C00D1C2
:1045D0009FE08021C90406000A43E5E7002824D0B3
:1045E000301B002C0BD1002B07D0441E012802D118
:1045F0000D00D31AD3E7FF2808D10D0075E7FF2E71
:1046000000D184E08024E4042343040001201B2C17
:1046100007DC18002025E0402C1BA3405C1EA341B2
:10462000184334000D00131ACAE7FE27661C0396D0
:104630003E400196039E3E4233D1002C1AD1002BFE
:1046400006D11D00002A00D17AE70D00009B77E714
:10465000002A4CD09E1A770106D50D00D31A0020EF
:10466000834200D16CE78DE7331E00D006E72500BA
:10467000002365E7002B05D1002A4CD00191634649
:10468000019D00E7002A40D08020029CC0038442A4
:1046900000D26FE7009C844200D36BE713000D004B
:1046A00068E79E1A770114D50D00D61A3000FBF783
:1046B00093FD33000538834084420EDC2022001B2A
:1046C0000130121A19009340C1405A1E93410B4306
:1046D000C5E7002EEAD10500CAE7134A241A1340A1
:1046E0005A0704D00F221A40042A00D004335A017A
:1046F0000FD5601CFE2CBBD00A4ADB0813401FE715
:104700001300ACE73000F0E61300FF20B6E63000FF
:1047100073E72000B2E68023DB039C46AFE7C04688
:10472000FFFFFF7DFFFF7F1FFFFFFFFB41024300F5
:10473000C20F490A00201B0E7E2B03DD9D2B02DDDC
:10474000084BD0187047802000040843952B05DDE6
:10475000963B9840002AF5D04042F3E79621CB1AC9
:10476000D840F7E7FFFFFF7F002310B50400984211
:1047700009D0FBF731FD9E231B1A962B08DC082875
:1047800029D0083884406402D805640A204310BD4B
:10479000992B1BDD020021001B3291400A00511EA3
:1047A0008A410521091ACC4014430C4A2240610772
:1047B0000FD00F210C40042C0BD00432D40851012F
:1047C00007D59F23064A1B1A1440DCE7421F94407A
:1047D000EBE7D408D7E79623D5E7C046FFFFFFFBFA
:1047E000FFFF7F1F10B5010000230022002000F012
:1047F00003FC10BD030010B50A0003490868190046
:1048000000F004F810BDC0462004002070B50B0C69
:104810000024150C002B28D1002D3CD18BB291B275
:10482000594300F047F8051E33D00300083B5A688F
:1048300003239A43043A242A12D80300132A0AD9DC
:104840000460446008331B2A05D98460C460242AAC
:104850002AD00300103300221A605A609A6002E0E6
:10486000002100F01DFB280070BD002D16D1151C85
:1048700089B292B24A43ADB29BB26B43110C5B1842
:10488000190C0BD1190492B2114300F013F8051E54
:10489000CBD10025E7E72B1C0D1CE9E700F05CFB02
:1048A0000C2300250360DEE7030004611833446134
:1048B000D1E7C046F0B54E464546DE465746E0B520
:1048C0000D000B35060085B0162D21D8102900D912
:1048D000D4E000F0D5FA102518230221CA4FFB18A6
:1048E0001A005C68083A944200D186E103226368AA
:1048F000A1689343E268CA6091600121E3185A6895
:1049000030000A435A6000F0C3FA20000830B8E0D3
:1049100007239D4300D5B1E0A94200D9AEE000F0E5
:10492000AFFAFC235B009D4200D2E0E1690A00D1AE
:10493000AEE0042900D9A1E138239846A9098844AA
:104940003931CB00082252429446AF4FFB189C44A9
:104950006346DC68A44514D0032399460B006146E6
:104960009C4607E0E068002A00DB40E1814200D17C
:1049700041E104004A46636893435A1B0F2AF1DD64
:1049800041463A003C690832944200D11EE10320BE
:1049900063688343581B0F2800DDACE13A617A61FC
:1049A0000028AADA7A68904680229200934200D3C7
:1049B00036E1DA085809012383404046184380460F
:1049C000D300DB199A687860E360A2609C60D460D1
:1049D00001208B109840404562D8434603420AD1DB
:1049E00003239943434640000431034203D140006E
:1049F00004310342FBD00323B3469C460E00B84665
:104A00000190F00040440100B246CB680BE06446E0
:104A10005A681F00A243DB68541B0F2C00DD39E1EC
:104A2000002C00DB53E19942F1D101239946CA449D
:104A3000534608319B07E8D1032205E00368083894
:104A4000013E834200D013E23242F7D14346019A3D
:104A50005B68934342465360019A520001929A4226
:104A60001CD8002A06D119E004229146019ACA44B2
:104A7000520001921342F7D05646C2E70C2333602E
:104A8000002005B0F0BCBB46B246A946A046F0BD2A
:104A900080233F22402190469B0053E75E464746D5
:104AA0000322BC68636893439846AB4203D35B1B05
:104AB0000F2B00DD8DE0230043440293534B08206D
:104AC0001B6810335B19019300F088FA504903907A
:104AD0000B688A46013306D08446019B4242013B63
:104AE0006344134001933000019900F023FA03005E
:104AF0008146013300D11CE1029B834200D916E1BB
:104B0000444B02989B461A68019B59469C46624456
:104B10000A6003990139484500D157E153461B68A3
:104B2000013300D15EE14B4602981B1A9B185A468E
:104B3000136007234A4648461A400292184200D1A1
:104B400015E10398013384469B1A019A99444A441B
:104B5000019263440A409B1A194030008A4600F0D3
:104B6000E9F9431C00D158E14B46C01A03005344F5
:104B700001935B461A68012052441A604B4649462D
:104B8000BB60019B03434B60BC4213D043460F2BD9
:104B900000D82BE107210C3B8B43616801400520C5
:104BA00019436160E118486088600F2B00D93FE12C
:104BB0004B465B6818490868904200D20A60174962
:104BC0000868904200D20A604C46B4E07B68984680
:104BD000FEE601222900134311436519616030008C
:104BE000BD606B6000F054F92000083049E7A2680E
:104BF000D060826081E66146C3E6DC680231A34290
:104C000000D1BEE672E6C046180000204008002031
:104C10000C000020100800203C080020380800206C
:104C20005A0A042A7CD9142A00D9B0E010005B305B
:104C300082465C32D200082040428446BA1894442E
:104C4000624692680B308146944500D186E00800A8
:104C5000A2466146844602E09268914204D04C46E6
:104C60005068A0439842F7D8D368614654469C46A2
:104C70006346A260E3609C60D460A9E6142967D90A
:104C8000542900D98CE06E239846290B88446F3153
:104C9000CB0057E6BA4601205146844649190543E0
:104CA00050464560856847466046EB605E469D60BD
:104CB000534639617961204308374860CF6030003E
:104CC0008F609C5000F0E4F850460830D9E6BA46B0
:104CD00001205E465244516801435160BA68300079
:104CE000D3609A6000F0D4F838000830C9E62B0091
:104CF000E9080833F2E56119884601218C460D4325
:104D00004146656039617961CA608A6062460243E2
:104D10004A60E050300000F0BBF820000830B0E6F8
:104D20009A091000393238308246D20083E7BC42FB
:104D300041D0BC686368032293431A005B1BAA42FC
:104D400002D30F2B00DD44E7300000F0A1F897E616
:104D50005B23984688445C31CB00F3E553469810BA
:104D600001238340404618438046786080E7019BDA
:104D7000039A4B440B40D31A194030008A4600F086
:104D8000D9F8431C00D0EFE600239A46F1E6542AF6
:104D90002ED81A0B10006F326E308246D2004AE7CE
:104DA000AA235B0099422ED8DD3B9846E90B884444
:104DB0007831CB00C6E5304B9B461A68019B9C4678
:104DC0005B4662441A60039B591EA7E648460842A8
:104DD00000D0A3E6B9684344894601210B43494604
:104DE0004B60E7E653464A461A60A2E64860ABE7E6
:104DF000AA204000824226D8DA0B100078327730A1
:104E00008246D20017E71D4B994226D87C2398464C
:104E1000A90C88447D31CB0094E5019A029B94460D
:104E20004A46083B63449B1A019300239A46A0E636
:104E300021003000083100F099F95B461A68BB6820
:104E400099465B68B6E60D4882420CD89A0C100071
:104E50007D327C308246D200EDE6FE237E227F2129
:104E600090469B006EE5FE227E2092008246E2E69E
:104E700043465B68F0E5C04610080020540500007A
:104E800010B5024800F0A6F810BDC0468009002009
:104E900010B5024800F0A0F810BDC04680090020FF
:104EA000F0B5830741D0050004000327861804E00D
:104EB000297001353B4204D01C00631CB442F7D179
:104EC000F0BD013A8218121B032A25D9FF240C4099
:104ED00025022D192C042D190F2A28D91C00130086
:104EE0002600103B1B091B0110369B1925606560CD
:104EF000A560E5601034A342F8D10F240C261440BD
:104F000016402200002E07D0A2089200D21820C31B
:104F10009342FCD103222240002AD1D0C9B29A1870
:104F2000197001339A42FBD1CAE70300CCE71400A1
:104F3000EAE7C046002370B5064C05000800236070
:104F4000FEF79CFF431C00D070BD2368002BFBD0F4
:104F50002B60F9E77C090020014B18687047C046B8
:104F60002004002070B50D4B0D4D5E1BB610AB42FA
:104F700005D0002408CD01349847A642FAD800F0A5
:104F8000EDF9084B084D5E1BB610AB4205D000246E
:104F900008CD01349847A642FAD870BDE4940008C1
:104FA000E4940008EC940008E494000870B5074C01
:104FB000074D641BA41005D0013CA300EB58984793
:104FC000002CF9D100F0D0F970BDC046F094000873
:104FD000EC9400087047C0467047C046802310B567
:104FE0005B01082801D1180010BDFFF7B5FF16239B
:104FF0000360173BF7E7C046F0B5D6464F46464636
:105000009846244BC0B5060018689A460F00914692
:10501000FFF7E0FF204B1D68002D32D053466C682F
:1050200018681F2C30DC002E0CD1631C0234A40045
:105030006B606751FFF7D0FF0020E0BCBA46B14675
:10504000A846F0BD49468822A300EB189950C42118
:1050500049008C46AC446146873AA24009689146B3
:105060001143624611608421424649005A50022E83
:10507000DBD129004A468D31FF310B6813430B60A9
:10508000D3E7064D1D60C9E7FFF7A6FF01204042A8
:10509000D3E7C04668050020180B002088090020CF
:1050A000034B10B5002B02D00248FFF79BFB10BD4D
:1050B00000000000AD4F0008F0B5C646060000B580
:1050C00008200D00FFF78AFF04003000FFF7D8FE2C
:1050D000234B210098469B685F6803239F43380059
:1050E0001138401B0019FAF7EBFF451E6543AC422F
:1050F00008DC00213000FFF71DFF43469B68DB19E9
:10510000984206D03000FFF7C3FE002080BCB846AE
:10511000F0BD30006942FFF70DFF01300ED00122D3
:1051200043467F1B9B6817430E4A5F60136830003D
:105130005B1B1360FFF7ACFE0120E7E700213000A6
:10514000FFF7F8FE43469A68831A0F2BDADD064C08
:1051500004492468001B086001210B435360D1E718
:1051600018000020100800200C000020F0B5D646E2
:105170004F46464605000C00C0B5002948D0FFF751
:105180007FFE2100012708394B6803209C46BB4362
:10519000CE18726882436046384080466A4891461D
:1051A0008468B44200D17CE07260B41864683C400A
:1051B000A2464446002C30D10C68A446091B8C68DA
:1051C0006344A4460824A0468044C4455CD0CC680F
:1051D000A04664464246E26094605246002A1FD0D0
:1051E0001F434F60336080229200934230D2DA082E
:1051F0005C090123A340446823434360D3001B1888
:105200009A68CB608A609960D1602800FFF740FE01
:10521000E0BCBA46B146A846F0BD5246002A0FD1BE
:1052200001224B44CF18BC46B468484F1A43BC42D5
:105230005BD0F668E660B4604A6062461360D2E70D
:1052400062463A434A608022336092009342CED352
:105250005C0A042C3FD89C09260039343836E40017
:1052600004192268083C0327944203D14EE0926857
:10527000944203D05068B8439842F8D8D468CC60C0
:105280008A60A160D160C0E75246002A35D14B4404
:105290001A00B068F3681743C36098604F608A5083
:1052A000B3E74B441A004346002B06D10B68C91ADA
:1052B0008C68D218CB68E3609C60012313434B6079
:1052C000234B81601B6893429FD8224B28001968AA
:1052D000FFF7F2FE99E7142C13D9542C1DD81C0BA0
:1052E00026006F346E36E400BAE7E160A1604A60E0
:1052F0006246CC608C60136087E71F434F60336069
:1053000083E726005C345B36E400A9E70123B6108E
:10531000B340466833434360B1E7AA225200944247
:1053200005D8DC0B260078347736E40098E70A4A83
:10533000944205D89C0C26007D347C36E4008FE72F
:10534000FE247E26A4008BE7180000202000002009
:10535000100000204008002054050000F8B5C046A9
:10536000F8BC08BC9E467047F8B5C046F8BC08BCFF
:045370009E4670479E
:1053740004080C10141800001B171E02060A0E1253
:10538400161A00001915110D0905011D1C00000055
:10539400960000000000000000000000AE000000C5
:1053A4000000000000000000C60000000000000033
:1053B40000000000D8000000000000000100000010
:1053C400EA0000000000000001000000F6000000F8
:1053D40000000000000000000201000000000000C6
:1053E400000000000E0100000000000001000000A9
:1053F4002601000000000000010000003801000048
:1054040000000000010000004A010000000000004C
:105414000000000056010000000000000000000031
:105424006E01000000000000000000008601000082
:1054340000000000000000009801000000000000CF
:1054440001000000AA0100000000000001000000AB
:10545400B60100000000000000000000C2010000CE
:105464000000000000000000CE0100000000000069
:1054740001000000E601000000000000010000003F
:10548400F801000000000000010000000A02000012
:1054940000000000000000001602000000000000F0
:1054A400000000002E0200000000000000000000C8
:1054B4004602000000000000000000005802000046
:1054C40000000000010000006A020000000000006B
:1054D400010000007602000000000000000000004F
:1054E4008202000000000000000000008E020000A4
:1054F4000000000001000000A602000000000000FF
:1055040001000000B80200000000000001000000DB
:10551400CA0200000000000000000000D6020000E3
:105524000000000000000000EE0200000000000087
:10553400000000000603000000000000000000005E
:105544001803000000000000010000002A0300000E
:10555400000000000100000036030000000000000D
:1055640000000000420300000000000000000000F2
:105574004E0300000000000001000000660300006C
:10558400000000000100000078030000000000009B
:10559400010000008A030000000000000000000079
:1055A400A2030000D1030000010000000204000077
:1055B40000000000010000000E04000000000000D4
:1055C400000000001A0400000000000001000000B8
:1055D4002604000000000000000000003204000067
:1055E40000000000000000003E0400000000000075
:1055F400000000004A040000000000000100000058
:1056040056040000000000000100000068040000CF
:1056140000000000000000007A040000A90400005B
:1056240001000000B6040000D904000000000000DE
:10563400E604000009050000010000002205000046
:1056440000000000010000002E0500000000000022
:10565400000000003A050000000000000000000007
:105664004605000000000000010000005205000093
:1056740000000000010000005805000000000000C8
:1056840000000000640500000000000000000000AD
:105694006A0500000000000001000000820500000F
:1056A40000000000010000008E0500000000000062
:1056B400010000009A050000000000000000000046
:1056C400A60500000000000000000000AC0500007A
:1056D4000000000001000000B80500000000000008
:1056E40000000000C40500000000000000000000ED
:1056F400D00500000000000001000000E2050000E9
:105704000000000001000000EE05000000000000A1
:1057140000000000FA050000000000000000000086
:105724000606000000000000010000001206000050
:105734000000000001000000180600000000000046
:10574400000000002406000000000000000000002B
:105754002A060000000000000100000042060000CC
:1057640000000000010000004E06000000000000E0
:10577400010000005A0600000000000000000000C4
:105784006606000000000000010000006C06000036
:105794000000000000000000780600000000000087
:1057A400010000008406000000000000000000006A
:1057B40090060000AD06000000000000C6060000D0
:1057C4000000000001000000D206000000000000FC
:1057D40001000000DE0600000000000000000000E0
:1057E400E40600000000000001000000F0060000D4
:1057F4000D07000000000000260700000000000064
:105804000100000032070000000000000100000059
:105814003E070000000000000000000044070000F4
:105824005507000001000000560700006D07000046
:10583400000000006E0700000000000000000000EF
:105844007A070000D90700000100000022080000C8
:1058540000000000010000002E080000000000000D
:10586400000000003A0800000000000000000000F2
:10587400460800000000000001000000520800007B
:1058840000000000010000005808000000000000B3
:105894000000000064080000000000000000000098
:1058A4006A080000000000000100000082080000F7
:1058B40000000000010000008E080000000000004D
:1058C400010000009A080000000000000000000031
:1058D400A60800000000000000000000AC08000062
:1058E4000000000001000000B808000000000000F3
:1058F40000000000C40800000000000000000000D8
:10590400D00800000000000001000000E2080000D0
:105914000000000001000000EE080000000000008C
:1059240000000000FA080000000000000000000071
:105934000609000000000000010000001209000038
:105944000000000001000000180900000000000031
:105954000000000024090000000000000000000016
:105964002A090000000000000100000042090000B4
:1059740000000000010000004E09000000000000CB
:10598400010000005A0900000000000000000000AF
:105994006609000000000000010000006C0900001E
:1059A4000000000000000000780900000000000072
:1059B4000100000084090000000000000000000055
:1059C40090090000AD09000000000000C6090000B5
:1059D4000000000001000000D209000000000000E7
:1059E40001000000DE0900000000000000000000CB
:1059F400E40900000000000001000000F0090000BC
:105A04000D0A000000000000260A0000000000004B
:105A140001000000320A0000000000000100000044
:105A24003E0A00000000000000000000440A0000DC
:105A3400550A000001000000560A00006D0A00002B
:105A4400000000006E0A00000000000000000000DA
:105A54007A0A0000D90A0000010000002E0B0000A1
:105A640000000000000000003A0B000000000000ED
:105A740000000000460B00000000000001000000D0
:105A8400580B000000000000010000006A0B000039
:105A94000000000000000000760B00000000000081
:105AA40000000000880B000000000000010000005E
:105AB4009A0B0000D50B000000000000EE0B000064
:105AC4000000000000000000FA0B000000000000CD
